{
    "_format": "hh-sol-artifact-1",
    "contractName": "WavePortal",
    "sourceName": "contracts/Wave.sol",
    "abi": [
        {
            "inputs": [],
            "stateMutability": "nonpayable",
            "type": "constructor"
        },
        {
            "inputs": [],
            "name": "getAllWaves",
            "outputs": [
                {
                    "components": [
                        {
                            "internalType": "address",
                            "name": "waver",
                            "type": "address"
                        },
                        {
                            "internalType": "uint256",
                            "name": "timestamp",
                            "type": "uint256"
                        }
                    ],
                    "internalType": "struct WavePortal.Wave[]",
                    "name": "",
                    "type": "tuple[]"
                }
            ],
            "stateMutability": "view",
            "type": "function"
        },
        {
            "inputs": [],
            "name": "getTotalWaves",
            "outputs": [
                {
                    "internalType": "uint256",
                    "name": "",
                    "type": "uint256"
                }
            ],
            "stateMutability": "view",
            "type": "function"
        },
        {
            "inputs": [],
            "name": "wave",
            "outputs": [],
            "stateMutability": "nonpayable",
            "type": "function"
        }
    ],
    "bytecode": "0x608060405234801561001057600080fd5b5061003c6040518060600160405280602481526020016109cf6024913961004160201b6102991760201c565b6101c4565b6100dd816040516024016100559190610142565b6040516020818303038152906040527f41304fac000000000000000000000000000000000000000000000000000000007bffffffffffffffffffffffffffffffffffffffffffffffffffffffff19166020820180517bffffffffffffffffffffffffffffffffffffffffffffffffffffffff83818316178352505050506100e060201b60201c565b50565b60008151905060006a636f6e736f6c652e6c6f679050602083016000808483855afa5050505050565b600061011482610164565b61011e818561016f565b935061012e818560208601610180565b610137816101b3565b840191505092915050565b6000602082019050818103600083015261015c8184610109565b905092915050565b600081519050919050565b600082825260208201905092915050565b60005b8381101561019e578082015181840152602081019050610183565b838111156101ad576000848401525b50505050565b6000601f19601f8301169050919050565b6107fc806101d36000396000f3fe608060405234801561001057600080fd5b50600436106100415760003560e01c80636fe15b44146100465780639a2cdc0814610050578063bd43a9081461006e575b600080fd5b61004e61008c565b005b61005861018f565b6040516100659190610651565b60405180910390f35b6100766101da565b60405161008391906105ad565b60405180910390f35b600160008082825461009e91906106c1565b92505081905550600160405180604001604052803373ffffffffffffffffffffffffffffffffffffffff16815260200142815250908060018154018082558091505060019003906000526020600020906002020160009091909190915060008201518160000160006101000a81548173ffffffffffffffffffffffffffffffffffffffff021916908373ffffffffffffffffffffffffffffffffffffffff16021790555060208201518160010155505061018d6040518060400160405280600d81526020017f257320686173207761766564210000000000000000000000000000000000000081525033610332565b565b60006101d26040518060400160405280601781526020017f5765206861766520256420746f74616c207761766573210000000000000000008152506000546103ce565b600054905090565b60606001805480602002602001604051908101604052809291908181526020016000905b8282101561029057838290600052602060002090600202016040518060400160405290816000820160009054906101000a900473ffffffffffffffffffffffffffffffffffffffff1673ffffffffffffffffffffffffffffffffffffffff1673ffffffffffffffffffffffffffffffffffffffff168152602001600182015481525050815260200190600101906101fe565b50505050905090565b61032f816040516024016102ad91906105cf565b6040516020818303038152906040527f41304fac000000000000000000000000000000000000000000000000000000007bffffffffffffffffffffffffffffffffffffffffffffffffffffffff19166020820180517bffffffffffffffffffffffffffffffffffffffffffffffffffffffff838183161783525050505061046a565b50565b6103ca82826040516024016103489291906105f1565b6040516020818303038152906040527f319af333000000000000000000000000000000000000000000000000000000007bffffffffffffffffffffffffffffffffffffffffffffffffffffffff19166020820180517bffffffffffffffffffffffffffffffffffffffffffffffffffffffff838183161783525050505061046a565b5050565b61046682826040516024016103e4929190610621565b6040516020818303038152906040527f9710a9d0000000000000000000000000000000000000000000000000000000007bffffffffffffffffffffffffffffffffffffffffffffffffffffffff19166020820180517bffffffffffffffffffffffffffffffffffffffffffffffffffffffff838183161783525050505061046a565b5050565b60008151905060006a636f6e736f6c652e6c6f679050602083016000808483855afa5050505050565b600061049f8383610560565b60408301905092915050565b6104b481610717565b82525050565b6104c381610717565b82525050565b60006104d48261067c565b6104de818561069f565b93506104e98361066c565b8060005b8381101561051a5781516105018882610493565b975061050c83610692565b9250506001810190506104ed565b5085935050505092915050565b600061053282610687565b61053c81856106b0565b935061054c818560208601610753565b610555816107b5565b840191505092915050565b60408201600082015161057660008501826104ab565b506020820151610589602085018261058f565b50505050565b61059881610749565b82525050565b6105a781610749565b82525050565b600060208201905081810360008301526105c781846104c9565b905092915050565b600060208201905081810360008301526105e98184610527565b905092915050565b6000604082019050818103600083015261060b8185610527565b905061061a60208301846104ba565b9392505050565b6000604082019050818103600083015261063b8185610527565b905061064a602083018461059e565b9392505050565b6000602082019050610666600083018461059e565b92915050565b6000819050602082019050919050565b600081519050919050565b600081519050919050565b6000602082019050919050565b600082825260208201905092915050565b600082825260208201905092915050565b60006106cc82610749565b91506106d783610749565b9250827fffffffffffffffffffffffffffffffffffffffffffffffffffffffffffffffff0382111561070c5761070b610786565b5b828201905092915050565b600061072282610729565b9050919050565b600073ffffffffffffffffffffffffffffffffffffffff82169050919050565b6000819050919050565b60005b83811015610771578082015181840152602081019050610756565b83811115610780576000848401525b50505050565b7f4e487b7100000000000000000000000000000000000000000000000000000000600052601160045260246000fd5b6000601f19601f830116905091905056fea2646970667358221220bf7577c509f564aff61fe8909b8b3d551e027ba1612d05cc4057240943a39f0064736f6c63430008000033596f20796f2c204920616d206120636f6e747261637420616d204920616d20736d617274",
    "linkReferences": {},
    "deployedLinkReferences": {}
}